{
  "contractName": "NGOrganization",
  "abi": [
    {
      "inputs": [
        {
          "internalType": "string",
          "name": "_user",
          "type": "string"
        }
      ],
      "stateMutability": "nonpayable",
      "type": "constructor"
    },
    {
      "stateMutability": "payable",
      "type": "fallback",
      "payable": true
    },
    {
      "stateMutability": "payable",
      "type": "receive",
      "payable": true
    },
    {
      "inputs": [
        {
          "internalType": "address payable",
          "name": "_to",
          "type": "address"
        },
        {
          "internalType": "string",
          "name": "_name",
          "type": "string"
        },
        {
          "internalType": "string",
          "name": "_location",
          "type": "string"
        }
      ],
      "name": "DONATE",
      "outputs": [],
      "stateMutability": "payable",
      "type": "function",
      "payable": true
    },
    {
      "inputs": [],
      "name": "getNGOFunds",
      "outputs": [
        {
          "internalType": "uint256",
          "name": "",
          "type": "uint256"
        }
      ],
      "stateMutability": "view",
      "type": "function",
      "constant": true
    },
    {
      "inputs": [],
      "name": "getSusFunds",
      "outputs": [
        {
          "internalType": "uint256",
          "name": "",
          "type": "uint256"
        }
      ],
      "stateMutability": "view",
      "type": "function",
      "constant": true
    },
    {
      "inputs": [],
      "name": "getThreshold",
      "outputs": [
        {
          "internalType": "uint256",
          "name": "",
          "type": "uint256"
        }
      ],
      "stateMutability": "view",
      "type": "function",
      "constant": true
    },
    {
      "inputs": [],
      "name": "getMaxValue",
      "outputs": [
        {
          "internalType": "uint256",
          "name": "",
          "type": "uint256"
        }
      ],
      "stateMutability": "view",
      "type": "function",
      "constant": true
    },
    {
      "inputs": [],
      "name": "getDonors",
      "outputs": [
        {
          "internalType": "address[]",
          "name": "",
          "type": "address[]"
        }
      ],
      "stateMutability": "view",
      "type": "function",
      "constant": true
    },
    {
      "inputs": [],
      "name": "getDonatees",
      "outputs": [
        {
          "internalType": "address[]",
          "name": "",
          "type": "address[]"
        }
      ],
      "stateMutability": "view",
      "type": "function",
      "constant": true
    },
    {
      "inputs": [],
      "name": "getLaundry",
      "outputs": [
        {
          "internalType": "address[]",
          "name": "",
          "type": "address[]"
        }
      ],
      "stateMutability": "view",
      "type": "function",
      "constant": true
    },
    {
      "inputs": [],
      "name": "getUser",
      "outputs": [
        {
          "internalType": "string",
          "name": "",
          "type": "string"
        }
      ],
      "stateMutability": "view",
      "type": "function",
      "constant": true
    },
    {
      "inputs": [
        {
          "internalType": "string",
          "name": "_user",
          "type": "string"
        }
      ],
      "name": "setUser",
      "outputs": [],
      "stateMutability": "nonpayable",
      "type": "function"
    },
    {
      "inputs": [
        {
          "internalType": "address payable",
          "name": "_to",
          "type": "address"
        }
      ],
      "name": "giveToDonatee",
      "outputs": [],
      "stateMutability": "payable",
      "type": "function",
      "payable": true
    },
    {
      "inputs": [
        {
          "internalType": "uint256",
          "name": "_amount",
          "type": "uint256"
        }
      ],
      "name": "withdrawDonatee",
      "outputs": [],
      "stateMutability": "payable",
      "type": "function",
      "payable": true
    },
    {
      "inputs": [],
      "name": "donateeShowBalance",
      "outputs": [
        {
          "internalType": "uint256",
          "name": "",
          "type": "uint256"
        }
      ],
      "stateMutability": "view",
      "type": "function",
      "constant": true
    },
    {
      "inputs": [
        {
          "internalType": "string",
          "name": "_name",
          "type": "string"
        }
      ],
      "name": "setDonorName",
      "outputs": [],
      "stateMutability": "nonpayable",
      "type": "function"
    },
    {
      "inputs": [
        {
          "internalType": "string",
          "name": "_location",
          "type": "string"
        }
      ],
      "name": "setDonorLocation",
      "outputs": [],
      "stateMutability": "nonpayable",
      "type": "function"
    },
    {
      "inputs": [],
      "name": "getDonorName",
      "outputs": [
        {
          "internalType": "string",
          "name": "",
          "type": "string"
        }
      ],
      "stateMutability": "view",
      "type": "function",
      "constant": true
    },
    {
      "inputs": [],
      "name": "getDonorLocation",
      "outputs": [
        {
          "internalType": "string",
          "name": "",
          "type": "string"
        }
      ],
      "stateMutability": "view",
      "type": "function",
      "constant": true
    },
    {
      "inputs": [
        {
          "internalType": "address",
          "name": "_addr",
          "type": "address"
        },
        {
          "internalType": "string",
          "name": "_name",
          "type": "string"
        },
        {
          "internalType": "string",
          "name": "_location",
          "type": "string"
        }
      ],
      "name": "setDonateeInfo",
      "outputs": [],
      "stateMutability": "nonpayable",
      "type": "function"
    },
    {
      "inputs": [],
      "name": "getDonateeInfo",
      "outputs": [
        {
          "internalType": "address",
          "name": "",
          "type": "address"
        },
        {
          "internalType": "string",
          "name": "",
          "type": "string"
        },
        {
          "internalType": "string",
          "name": "",
          "type": "string"
        },
        {
          "internalType": "uint256",
          "name": "",
          "type": "uint256"
        }
      ],
      "stateMutability": "view",
      "type": "function",
      "constant": true
    }
  ],
  "bytecode": "0x6080604052678ac7230489e80000600755600060085560006009556802b5e3af16b1880000600a553480156200003457600080fd5b5060405162002e9c38038062002e9c83398181016040528101906200005a91906200041b565b33600260006101000a81548173ffffffffffffffffffffffffffffffffffffffff021916908373ffffffffffffffffffffffffffffffffffffffff1602179055508060069080519060200190620000b3929190620001c0565b50604051620000c29062000251565b604051809103906000f080158015620000df573d6000803e3d6000fd5b50600b60006101000a81548173ffffffffffffffffffffffffffffffffffffffff021916908373ffffffffffffffffffffffffffffffffffffffff16021790555062000153600b60009054906101000a900473ffffffffffffffffffffffffffffffffffffffff166200015a60201b60201c565b50620004d1565b6001819080600181540180825580915050600190039060005260206000200160009091909190916101000a81548173ffffffffffffffffffffffffffffffffffffffff021916908373ffffffffffffffffffffffffffffffffffffffff16021790555050565b828054620001ce906200049b565b90600052602060002090601f016020900481019282620001f257600085556200023e565b82601f106200020d57805160ff19168380011785556200023e565b828001600101855582156200023e579182015b828111156200023d57825182559160200191906001019062000220565b5b5090506200024d91906200025f565b5090565b610a84806200241883390190565b5b808211156200027a57600081600090555060010162000260565b5090565b6000604051905090565b600080fd5b600080fd5b600080fd5b600080fd5b6000601f19601f8301169050919050565b7f4e487b7100000000000000000000000000000000000000000000000000000000600052604160045260246000fd5b620002e7826200029c565b810181811067ffffffffffffffff82111715620003095762000308620002ad565b5b80604052505050565b60006200031e6200027e565b90506200032c8282620002dc565b919050565b600067ffffffffffffffff8211156200034f576200034e620002ad565b5b6200035a826200029c565b9050602081019050919050565b60005b83811015620003875780820151818401526020810190506200036a565b8381111562000397576000848401525b50505050565b6000620003b4620003ae8462000331565b62000312565b905082815260208101848484011115620003d357620003d262000297565b5b620003e084828562000367565b509392505050565b600082601f8301126200040057620003ff62000292565b5b8151620004128482602086016200039d565b91505092915050565b60006020828403121562000434576200043362000288565b5b600082015167ffffffffffffffff8111156200045557620004546200028d565b5b6200046384828501620003e8565b91505092915050565b7f4e487b7100000000000000000000000000000000000000000000000000000000600052602260045260246000fd5b60006002820490506001821680620004b457607f821691505b60208210811415620004cb57620004ca6200046c565b5b50919050565b611f3780620004e16000396000f3fe6080604052600436106101185760003560e01c806356c03c74116100a0578063c61dc45f11610064578063c61dc45f1461035c578063d0020fad14610387578063e75235b8146103b0578063f0737028146103db578063f7009b96146104045761011f565b806356c03c7414610285578063832880e7146102b05780638c69b7b4146102db57806394bc29691461030657806396f300d4146103315761011f565b8063341f61c7116100e7578063341f61c7146101c157806334607994146101ec5780633af2c0c11461021557806343bbb6281461023e5780634c9eb4d41461025a5761011f565b8063101205501461012157806311dbcb651461014f5780631aca08301461016b57806330238a8f146101965761011f565b3661011f57005b005b34801561012d57600080fd5b50610136610420565b604051610146949392919061146d565b60405180910390f35b61016960048036038101906101649190611500565b610683565b005b34801561017757600080fd5b50610180610713565b60405161018d91906115eb565b60405180910390f35b3480156101a257600080fd5b506101ab6107a1565b6040516101b8919061160d565b60405180910390f35b3480156101cd57600080fd5b506101d6610833565b6040516101e3919061162f565b60405180910390f35b3480156101f857600080fd5b50610213600480360381019061020e919061177f565b61083d565b005b34801561022157600080fd5b5061023c600480360381019061023791906117f4565b610857565b005b610258600480360381019061025391906118bd565b610a0c565b005b34801561026657600080fd5b5061026f610baa565b60405161027c919061162f565b60405180910390f35b34801561029157600080fd5b5061029a610bb4565b6040516102a7919061160d565b60405180910390f35b3480156102bc57600080fd5b506102c5610c46565b6040516102d2919061160d565b60405180910390f35b3480156102e757600080fd5b506102f0610cd8565b6040516102fd919061162f565b60405180910390f35b34801561031257600080fd5b5061031b610d70565b60405161032891906115eb565b60405180910390f35b34801561033d57600080fd5b50610346610dfe565b60405161035391906115eb565b60405180910390f35b34801561036857600080fd5b50610371610e8c565b60405161037e919061162f565b60405180910390f35b34801561039357600080fd5b506103ae60048036038101906103a9919061177f565b610e96565b005b3480156103bc57600080fd5b506103c5610f40565b6040516103d2919061162f565b60405180910390f35b3480156103e757600080fd5b5061040260048036038101906103fd919061177f565b610f4a565b005b61041e600480360381019061041991906118ea565b610f64565b005b60006060806000600b60009054906101000a900473ffffffffffffffffffffffffffffffffffffffff1673ffffffffffffffffffffffffffffffffffffffff16634a4298816040518163ffffffff1660e01b8152600401602060405180830381865afa158015610494573d6000803e3d6000fd5b505050506040513d601f19601f820116820180604052508101906104b8919061198a565b600b60009054906101000a900473ffffffffffffffffffffffffffffffffffffffff1673ffffffffffffffffffffffffffffffffffffffff1663865a2e516040518163ffffffff1660e01b8152600401600060405180830381865afa158015610525573d6000803e3d6000fd5b505050506040513d6000823e3d601f19601f8201168201806040525081019061054e9190611a27565b600b60009054906101000a900473ffffffffffffffffffffffffffffffffffffffff1673ffffffffffffffffffffffffffffffffffffffff1663e6ade3b96040518163ffffffff1660e01b8152600401600060405180830381865afa1580156105bb573d6000803e3d6000fd5b505050506040513d6000823e3d601f19601f820116820180604052508101906105e49190611a27565b600b60009054906101000a900473ffffffffffffffffffffffffffffffffffffffff1673ffffffffffffffffffffffffffffffffffffffff16638a6cd9f06040518163ffffffff1660e01b8152600401602060405180830381865afa158015610651573d6000803e3d6000fd5b505050506040513d601f19601f820116820180604052508101906106759190611a85565b935093509350935090919293565b600b60009054906101000a900473ffffffffffffffffffffffffffffffffffffffff1673ffffffffffffffffffffffffffffffffffffffff16632e1a7d4d826040518263ffffffff1660e01b81526004016106de919061162f565b600060405180830381600087803b1580156106f857600080fd5b505af115801561070c573d6000803e3d6000fd5b5050505050565b6060600380548060200260200160405190810160405280929190818152602001828054801561079757602002820191906000526020600020905b8160009054906101000a900473ffffffffffffffffffffffffffffffffffffffff1673ffffffffffffffffffffffffffffffffffffffff168152602001906001019080831161074d575b5050505050905090565b6060600480546107b090611ae1565b80601f01602080910402602001604051908101604052809291908181526020018280546107dc90611ae1565b80156108295780601f106107fe57610100808354040283529160200191610829565b820191906000526020600020905b81548152906001019060200180831161080c57829003601f168201915b5050505050905090565b6000600854905090565b80600490805190602001906108539291906112d7565b5050565b600b60009054906101000a900473ffffffffffffffffffffffffffffffffffffffff1673ffffffffffffffffffffffffffffffffffffffff1663d324b18b846040518263ffffffff1660e01b81526004016108b29190611b13565b600060405180830381600087803b1580156108cc57600080fd5b505af11580156108e0573d6000803e3d6000fd5b50505050600b60009054906101000a900473ffffffffffffffffffffffffffffffffffffffff1673ffffffffffffffffffffffffffffffffffffffff1663da6d7e8d836040518263ffffffff1660e01b815260040161093f919061160d565b600060405180830381600087803b15801561095957600080fd5b505af115801561096d573d6000803e3d6000fd5b50505050600b60009054906101000a900473ffffffffffffffffffffffffffffffffffffffff1673ffffffffffffffffffffffffffffffffffffffff1663e911bd0a826040518263ffffffff1660e01b81526004016109cc919061160d565b600060405180830381600087803b1580156109e657600080fd5b505af11580156109fa573d6000803e3d6000fd5b50505050610a0783611186565b505050565b600854341115610a51576040517f08c379a0000000000000000000000000000000000000000000000000000000008152600401610a4890611b7a565b60405180910390fd5b600b60009054906101000a900473ffffffffffffffffffffffffffffffffffffffff1673ffffffffffffffffffffffffffffffffffffffff1663d70c03bc346040518263ffffffff1660e01b8152600401610aac919061162f565b600060405180830381600087803b158015610ac657600080fd5b505af1158015610ada573d6000803e3d6000fd5b505050506000808273ffffffffffffffffffffffffffffffffffffffff1634604051610b0590611bcb565b60006040518083038185875af1925050503d8060008114610b42576040519150601f19603f3d011682016040523d82523d6000602084013e610b47565b606091505b509150915081610b8c576040517f08c379a0000000000000000000000000000000000000000000000000000000008152600401610b8390611c2c565b60405180910390fd5b3460086000828254610b9e9190611c7b565b92505081905550505050565b6000600a54905090565b606060058054610bc390611ae1565b80601f0160208091040260200160405190810160405280929190818152602001828054610bef90611ae1565b8015610c3c5780601f10610c1157610100808354040283529160200191610c3c565b820191906000526020600020905b815481529060010190602001808311610c1f57829003601f168201915b5050505050905090565b606060068054610c5590611ae1565b80601f0160208091040260200160405190810160405280929190818152602001828054610c8190611ae1565b8015610cce5780601f10610ca357610100808354040283529160200191610cce565b820191906000526020600020905b815481529060010190602001808311610cb157829003601f168201915b5050505050905090565b6000600b60009054906101000a900473ffffffffffffffffffffffffffffffffffffffff1673ffffffffffffffffffffffffffffffffffffffff16638a6cd9f06040518163ffffffff1660e01b8152600401602060405180830381865afa158015610d47573d6000803e3d6000fd5b505050506040513d601f19601f82011682018060405250810190610d6b9190611a85565b905090565b60606001805480602002602001604051908101604052809291908181526020018280548015610df457602002820191906000526020600020905b8160009054906101000a900473ffffffffffffffffffffffffffffffffffffffff1673ffffffffffffffffffffffffffffffffffffffff1681526020019060010190808311610daa575b5050505050905090565b60606000805480602002602001604051908101604052809291908181526020018280548015610e8257602002820191906000526020600020905b8160009054906101000a900473ffffffffffffffffffffffffffffffffffffffff1673ffffffffffffffffffffffffffffffffffffffff1681526020019060010190808311610e38575b5050505050905090565b6000600954905090565b600260009054906101000a900473ffffffffffffffffffffffffffffffffffffffff1673ffffffffffffffffffffffffffffffffffffffff163373ffffffffffffffffffffffffffffffffffffffff1614610f26576040517f08c379a0000000000000000000000000000000000000000000000000000000008152600401610f1d90611cfb565b60405180910390fd5b8060069080519060200190610f3c9291906112d7565b5050565b6000600754905090565b8060059080519060200190610f609291906112d7565b5050565b600073ffffffffffffffffffffffffffffffffffffffff163373ffffffffffffffffffffffffffffffffffffffff161415610fd4576040517f08c379a0000000000000000000000000000000000000000000000000000000008152600401610fcb90611d67565b60405180910390fd5b670de0b6b3a764000034101561101f576040517f08c379a000000000000000000000000000000000000000000000000000000000815260040161101690611dd3565b60405180910390fd5b6110276111ec565b611066576040517f08c379a000000000000000000000000000000000000000000000000000000000815260040161105d90611e8b565b60405180910390fd5b600754341115611093576110793361120b565b346009600082825461108b9190611eab565b925050819055505b60075434116110d1576110a533611271565b34600860008282546110b79190611eab565b925050819055506110c78261083d565b6110d081610f4a565b5b6000808473ffffffffffffffffffffffffffffffffffffffff16346040516110f890611bcb565b60006040518083038185875af1925050503d8060008114611135576040519150601f19603f3d011682016040523d82523d6000602084013e61113a565b606091505b50915091508161117f576040517f08c379a000000000000000000000000000000000000000000000000000000000815260040161117690611c2c565b60405180910390fd5b5050505050565b6001819080600181540180825580915050600190039060005260206000200160009091909190916101000a81548173ffffffffffffffffffffffffffffffffffffffff021916908373ffffffffffffffffffffffffffffffffffffffff16021790555050565b6000600a5460085410156112035760019050611208565b600090505b90565b6003819080600181540180825580915050600190039060005260206000200160009091909190916101000a81548173ffffffffffffffffffffffffffffffffffffffff021916908373ffffffffffffffffffffffffffffffffffffffff16021790555050565b6000819080600181540180825580915050600190039060005260206000200160009091909190916101000a81548173ffffffffffffffffffffffffffffffffffffffff021916908373ffffffffffffffffffffffffffffffffffffffff16021790555050565b8280546112e390611ae1565b90600052602060002090601f016020900481019282611305576000855561134c565b82601f1061131e57805160ff191683800117855561134c565b8280016001018555821561134c579182015b8281111561134b578251825591602001919060010190611330565b5b509050611359919061135d565b5090565b5b8082111561137657600081600090555060010161135e565b5090565b600073ffffffffffffffffffffffffffffffffffffffff82169050919050565b60006113a58261137a565b9050919050565b6113b58161139a565b82525050565b600081519050919050565b600082825260208201905092915050565b60005b838110156113f55780820151818401526020810190506113da565b83811115611404576000848401525b50505050565b6000601f19601f8301169050919050565b6000611426826113bb565b61143081856113c6565b93506114408185602086016113d7565b6114498161140a565b840191505092915050565b6000819050919050565b61146781611454565b82525050565b600060808201905061148260008301876113ac565b8181036020830152611494818661141b565b905081810360408301526114a8818561141b565b90506114b7606083018461145e565b95945050505050565b6000604051905090565b600080fd5b600080fd5b6114dd81611454565b81146114e857600080fd5b50565b6000813590506114fa816114d4565b92915050565b600060208284031215611516576115156114ca565b5b6000611524848285016114eb565b91505092915050565b600081519050919050565b600082825260208201905092915050565b6000819050602082019050919050565b6115628161139a565b82525050565b60006115748383611559565b60208301905092915050565b6000602082019050919050565b60006115988261152d565b6115a28185611538565b93506115ad83611549565b8060005b838110156115de5781516115c58882611568565b97506115d083611580565b9250506001810190506115b1565b5085935050505092915050565b60006020820190508181036000830152611605818461158d565b905092915050565b60006020820190508181036000830152611627818461141b565b905092915050565b6000602082019050611644600083018461145e565b92915050565b600080fd5b600080fd5b7f4e487b7100000000000000000000000000000000000000000000000000000000600052604160045260246000fd5b61168c8261140a565b810181811067ffffffffffffffff821117156116ab576116aa611654565b5b80604052505050565b60006116be6114c0565b90506116ca8282611683565b919050565b600067ffffffffffffffff8211156116ea576116e9611654565b5b6116f38261140a565b9050602081019050919050565b82818337600083830152505050565b600061172261171d846116cf565b6116b4565b90508281526020810184848401111561173e5761173d61164f565b5b611749848285611700565b509392505050565b600082601f8301126117665761176561164a565b5b813561177684826020860161170f565b91505092915050565b600060208284031215611795576117946114ca565b5b600082013567ffffffffffffffff8111156117b3576117b26114cf565b5b6117bf84828501611751565b91505092915050565b6117d18161139a565b81146117dc57600080fd5b50565b6000813590506117ee816117c8565b92915050565b60008060006060848603121561180d5761180c6114ca565b5b600061181b868287016117df565b935050602084013567ffffffffffffffff81111561183c5761183b6114cf565b5b61184886828701611751565b925050604084013567ffffffffffffffff811115611869576118686114cf565b5b61187586828701611751565b9150509250925092565b600061188a8261137a565b9050919050565b61189a8161187f565b81146118a557600080fd5b50565b6000813590506118b781611891565b92915050565b6000602082840312156118d3576118d26114ca565b5b60006118e1848285016118a8565b91505092915050565b600080600060608486031215611903576119026114ca565b5b6000611911868287016118a8565b935050602084013567ffffffffffffffff811115611932576119316114cf565b5b61193e86828701611751565b925050604084013567ffffffffffffffff81111561195f5761195e6114cf565b5b61196b86828701611751565b9150509250925092565b600081519050611984816117c8565b92915050565b6000602082840312156119a05761199f6114ca565b5b60006119ae84828501611975565b91505092915050565b60006119ca6119c5846116cf565b6116b4565b9050828152602081018484840111156119e6576119e561164f565b5b6119f18482856113d7565b509392505050565b600082601f830112611a0e57611a0d61164a565b5b8151611a1e8482602086016119b7565b91505092915050565b600060208284031215611a3d57611a3c6114ca565b5b600082015167ffffffffffffffff811115611a5b57611a5a6114cf565b5b611a67848285016119f9565b91505092915050565b600081519050611a7f816114d4565b92915050565b600060208284031215611a9b57611a9a6114ca565b5b6000611aa984828501611a70565b91505092915050565b7f4e487b7100000000000000000000000000000000000000000000000000000000600052602260045260246000fd5b60006002820490506001821680611af957607f821691505b60208210811415611b0d57611b0c611ab2565b5b50919050565b6000602082019050611b2860008301846113ac565b92915050565b7f506c7320456e7465722066756e6473203c3d20746f74616c66756e6473000000600082015250565b6000611b64601d836113c6565b9150611b6f82611b2e565b602082019050919050565b60006020820190508181036000830152611b9381611b57565b9050919050565b600081905092915050565b50565b6000611bb5600083611b9a565b9150611bc082611ba5565b600082019050919050565b6000611bd682611ba8565b9150819050919050565b7f4661696c656420746f2073656e64204574686572000000000000000000000000600082015250565b6000611c166014836113c6565b9150611c2182611be0565b602082019050919050565b60006020820190508181036000830152611c4581611c09565b9050919050565b7f4e487b7100000000000000000000000000000000000000000000000000000000600052601160045260246000fd5b6000611c8682611454565b9150611c9183611454565b925082821015611ca457611ca3611c4c565b5b828203905092915050565b7f4e6f7420746865206f776e657200000000000000000000000000000000000000600082015250565b6000611ce5600d836113c6565b9150611cf082611caf565b602082019050919050565b60006020820190508181036000830152611d1481611cd8565b9050919050565b7f506c7320656e74657220796f757220657468657269756d206164647200000000600082015250565b6000611d51601c836113c6565b9150611d5c82611d1b565b602082019050919050565b60006020820190508181036000830152611d8081611d44565b9050919050565b7f506c7320456e74657220616e20696e7465676572206e756d6265720000000000600082015250565b6000611dbd601b836113c6565b9150611dc882611d87565b602082019050919050565b60006020820190508181036000830152611dec81611db0565b9050919050565b7f0a45766572796f6e652077696c6c20626520616c65727420696e20746865204e60008201527f6574776f726b0a5468697320706c6163652069736e2774206c61756e6472792060208201527f506c732121210000000000000000000000000000000000000000000000000000604082015250565b6000611e756046836113c6565b9150611e8082611df3565b606082019050919050565b60006020820190508181036000830152611ea481611e68565b9050919050565b6000611eb682611454565b9150611ec183611454565b9250827fffffffffffffffffffffffffffffffffffffffffffffffffffffffffffffffff03821115611ef657611ef5611c4c565b5b82820190509291505056fea2646970667358221220ef3b70fec9f26b760dbe60d622f7ca655e7476cf69088eb7755f90c1f08fe93864736f6c634300080a00336080604052600060025534801561001557600080fd5b50610a5f806100256000396000f3fe60806040526004361061008a5760003560e01c8063d324b18b11610059578063d324b18b14610162578063d70c03bc1461018b578063da6d7e8d146101a7578063e6ade3b9146101d0578063e911bd0a146101fb576100aa565b80632e1a7d4d146100c55780634a429881146100e1578063865a2e511461010c5780638a6cd9f014610137576100aa565b366100aa5734600260008282546100a1919061054d565b92505081905550005b34600260008282546100bc919061054d565b92505081905550005b6100df60048036038101906100da91906105e3565b610224565b005b3480156100ed57600080fd5b506100f6610285565b6040516101039190610651565b60405180910390f35b34801561011857600080fd5b506101216102af565b60405161012e9190610705565b60405180910390f35b34801561014357600080fd5b5061014c610341565b6040516101599190610736565b60405180910390f35b34801561016e57600080fd5b506101896004803603810190610184919061077d565b61034b565b005b6101a560048036038101906101a091906105e3565b61038f565b005b3480156101b357600080fd5b506101ce60048036038101906101c991906108df565b6103ab565b005b3480156101dc57600080fd5b506101e56103c5565b6040516101f29190610705565b60405180910390f35b34801561020757600080fd5b50610222600480360381019061021d91906108df565b610457565b005b600254811115610269576040517f08c379a000000000000000000000000000000000000000000000000000000000815260040161026090610974565b60405180910390fd5b806002600082825461027b9190610994565b9250508190555050565b6000600360009054906101000a900473ffffffffffffffffffffffffffffffffffffffff16905090565b6060600080546102be906109f7565b80601f01602080910402602001604051908101604052809291908181526020018280546102ea906109f7565b80156103375780601f1061030c57610100808354040283529160200191610337565b820191906000526020600020905b81548152906001019060200180831161031a57829003601f168201915b5050505050905090565b6000600254905090565b80600360006101000a81548173ffffffffffffffffffffffffffffffffffffffff021916908373ffffffffffffffffffffffffffffffffffffffff16021790555050565b80600260008282546103a1919061054d565b9250508190555050565b80600090805190602001906103c1929190610471565b5050565b6060600180546103d4906109f7565b80601f0160208091040260200160405190810160405280929190818152602001828054610400906109f7565b801561044d5780601f106104225761010080835404028352916020019161044d565b820191906000526020600020905b81548152906001019060200180831161043057829003601f168201915b5050505050905090565b806001908051906020019061046d929190610471565b5050565b82805461047d906109f7565b90600052602060002090601f01602090048101928261049f57600085556104e6565b82601f106104b857805160ff19168380011785556104e6565b828001600101855582156104e6579182015b828111156104e55782518255916020019190600101906104ca565b5b5090506104f391906104f7565b5090565b5b808211156105105760008160009055506001016104f8565b5090565b6000819050919050565b7f4e487b7100000000000000000000000000000000000000000000000000000000600052601160045260246000fd5b600061055882610514565b915061056383610514565b9250827fffffffffffffffffffffffffffffffffffffffffffffffffffffffffffffffff038211156105985761059761051e565b5b828201905092915050565b6000604051905090565b600080fd5b600080fd5b6105c081610514565b81146105cb57600080fd5b50565b6000813590506105dd816105b7565b92915050565b6000602082840312156105f9576105f86105ad565b5b6000610607848285016105ce565b91505092915050565b600073ffffffffffffffffffffffffffffffffffffffff82169050919050565b600061063b82610610565b9050919050565b61064b81610630565b82525050565b60006020820190506106666000830184610642565b92915050565b600081519050919050565b600082825260208201905092915050565b60005b838110156106a657808201518184015260208101905061068b565b838111156106b5576000848401525b50505050565b6000601f19601f8301169050919050565b60006106d78261066c565b6106e18185610677565b93506106f1818560208601610688565b6106fa816106bb565b840191505092915050565b6000602082019050818103600083015261071f81846106cc565b905092915050565b61073081610514565b82525050565b600060208201905061074b6000830184610727565b92915050565b61075a81610630565b811461076557600080fd5b50565b60008135905061077781610751565b92915050565b600060208284031215610793576107926105ad565b5b60006107a184828501610768565b91505092915050565b600080fd5b600080fd5b7f4e487b7100000000000000000000000000000000000000000000000000000000600052604160045260246000fd5b6107ec826106bb565b810181811067ffffffffffffffff8211171561080b5761080a6107b4565b5b80604052505050565b600061081e6105a3565b905061082a82826107e3565b919050565b600067ffffffffffffffff82111561084a576108496107b4565b5b610853826106bb565b9050602081019050919050565b82818337600083830152505050565b600061088261087d8461082f565b610814565b90508281526020810184848401111561089e5761089d6107af565b5b6108a9848285610860565b509392505050565b600082601f8301126108c6576108c56107aa565b5b81356108d684826020860161086f565b91505092915050565b6000602082840312156108f5576108f46105ad565b5b600082013567ffffffffffffffff811115610913576109126105b2565b5b61091f848285016108b1565b91505092915050565b7f4d757374206265203c3d20546f74616c46756e64730000000000000000000000600082015250565b600061095e601583610677565b915061096982610928565b602082019050919050565b6000602082019050818103600083015261098d81610951565b9050919050565b600061099f82610514565b91506109aa83610514565b9250828210156109bd576109bc61051e565b5b828203905092915050565b7f4e487b7100000000000000000000000000000000000000000000000000000000600052602260045260246000fd5b60006002820490506001821680610a0f57607f821691505b60208210811415610a2357610a226109c8565b5b5091905056fea2646970667358221220f2debc9da79a95e8d67f7f04ff2b193ab8990f68170cbd08bee93b396267af9f64736f6c634300080a0033",
  "immutableReferences": {},
  "source": "\nimport './Donatee.sol';\n\ncontract NGOrganization{\n\n    \n    address[] private donors;\n    address[] private donatees;\n    address private owner;\n    address[] private suspectLaundry;\n    string private donorName;\n    string private donorLocation;\n    string private user;\n    uint private threshold = 10 ether;\n    uint private totalFunds = 0 ether;\n    uint private susFunds = 0 ether;\n    uint private maxValue = 50 ether;\n    Donatee private _instance; \n\n    receive() external payable {}\n    fallback() external payable {}\n\n    constructor(string memory _user) {\n        owner = msg.sender;\n        user = _user;\n        _instance = new Donatee();\n        addDonatees(address(_instance)); \n    }\n    \n   \n   \n    function DONATE(address payable _to, string memory _name, string memory _location) public payable {\n\n        require(msg.sender != address(0x00) , \"Pls enter your etherium addr\");\n        require(msg.value >= 1 ether, \"Pls Enter an integer number\");\n        require(alertAll(), \"\\nEveryone will be alert in the Network\\nThis place isn't laundry Pls!!!\");\n        \n        if(msg.value > threshold  ){\n           addSuspect(msg.sender);\n           susFunds += msg.value;\n        }\n        if(msg.value <= threshold) {\n            addDonors(msg.sender);\n            totalFunds += msg.value;\n            setDonorName(_name);\n            setDonorLocation(_location);\n        }\n        (bool sent, bytes memory data) = _to.call{value: msg.value}(\"\");\n        require(sent, \"Failed to send Ether\");\n    }\n    \n\n    function getNGOFunds() public view returns (uint) { \n        return totalFunds;\n    }\n\n    function getSusFunds() public view returns (uint) { \n        return susFunds;\n    }\n\n    function getThreshold() public view returns (uint) { \n        return threshold;\n    }\n\n    function getMaxValue() public view returns (uint) { \n        return maxValue;\n    }\n\n\n    function getDonors() public view returns (address[] memory){\n        return donors;\n    }\n\n    function getDonatees() public view returns (address[] memory){\n        return donatees;\n    }\n    \n    function getLaundry() public view returns (address[] memory){\n        return suspectLaundry;\n    }\n\n    function addDonors(address _donor) private {\n        donors.push(_donor);\n    }\n\n    function getUser() public view returns (string memory) {\n        return user;\n    }\n\n    function setUser(string memory _user) public \n    {\n        require(msg.sender == owner, \"Not the owner\");\n        user = _user;\n    }\n\n    function addDonatees(address _donatee) private {\n        donatees.push(_donatee);\n    }\n\n    function addSuspect(address _suspect) private {\n        suspectLaundry.push(_suspect);\n    }\n\n    function alertAll() private view returns (bool){\n        if (totalFunds < maxValue) {\n            return true;\n        }\n        return false;\n    }\n\n    function giveToDonatee(address payable _to) external payable {\n        require(msg.value <= totalFunds ,\"Pls Enter funds <= totalfunds\");\n        _instance.receiveDonation(msg.value);\n\n        (bool sent, bytes memory data) = _to.call{value: msg.value}(\"\");\n        require(sent, \"Failed to send Ether\");\n        totalFunds -= msg.value;\n    }\n\n    function withdrawDonatee(uint256 _amount) public payable {\n        _instance.withdraw(_amount);\n    }\n    \n    function donateeShowBalance() public view returns (uint256) {\n        return _instance.getDonateeTotalFunds();\n    }\n\n    function setDonorName(string memory _name) public {\n        donorName = _name;\n    }\n\n    function setDonorLocation(string memory _location) public {\n        donorLocation = _location;\n    }\n\n    function getDonorName() public view returns (string memory) {\n        return donorName;\n    }\n\n    function getDonorLocation() public view returns (string memory) {\n        return donorLocation;\n    }\n    \n    function setDonateeInfo(address _addr, string memory _name, string memory _location) public {    \n        _instance.setDonateeAddr(_addr);\n        _instance.setDonateeName(_name);\n        _instance.setDonateeLocation(_location);\n        addDonatees(_addr);\n    }\n\n    function getDonateeInfo() public view returns (address, string memory, string memory, uint256 ) {\n        return (_instance.getDonateeAddr(), _instance.getDonateeName(), _instance.getDonateeLocation(), _instance.getDonateeTotalFunds());\n    }\n}",
  "sourcePath": "C:\\Users\\user\\Blockchain-application-part2\\contracts\\NGOrganization.sol",
  "compiler": {
    "name": "solc",
    "version": "0.8.10+commit.fc410830.Emscripten.clang"
  },
  "schemaVersion": "3.4.4",
  "updatedAt": "2022-02-06T14:51:10.958Z",
  "networkType": "ethereum",
  "devdoc": {
    "kind": "dev",
    "methods": {},
    "version": 1
  },
  "userdoc": {
    "kind": "user",
    "methods": {},
    "version": 1
  }
}